:020000040800F2
:10000000B80500203D2C0008052B0008072B000830
:10001000092B00080B2B00080D2B00080000000026
:100020000000000000000000000000000F2B00088E
:10003000112B000800000000132B0008152B0008EE
:10004000712C0008752C0008792C00087D2C000804
:10005000812C0008852C0008892C00088D2C0008B4
:10006000912C0008952C0008992C0008192B0008E9
:100070009D2C0008A12C0008A52C0008A92C000824
:10008000AD2C0008B12C0008B52C0008B92C0008D4
:10009000BD2C0008C12C0008C52C0008C92C000884
:1000A000CD2C0008292B0008D12C0008D52C0008E5
:1000B000D92C0008DD2C0008E12C0008E52C0008F4
:1000C000E92C0008ED2C0008F12C0008F52C0008A4
:1000D000F92C0008FD2C0008012D0008052D000852
:1000E000092D00080D2D0008112D00082DE9F843F9
:1000F000040016D02078DFF87C64C10713D570683F
:1001000000F00C00042807D0706800F00C000828EC
:1001100040D17068C1033DD53068810303D5606864
:10012000002800F0F4802078DFF85874810719D592
:10013000706810F00C0F07D0706800F00C000828F1
:1001400060D17068C1035DD43068810703D5206930
:10015000012840F0DC803168606921F0F80141EA53
:10016000C00131602178080770D5A069DFF8181444
:10017000002865D001220A6000F03AFA0546706A4C
:10018000810700F1C68000F033FA401B0228F6D93F
:10019000032035E16068B0F5803F04D1306840F459
:1001A0008030306014E008B930680AE0B0F5A02F64
:1001B000306806D140F480203060316841F48031ED
:1001C00005E020F480303060316821F48021316016
:1001D000606858B100F00CFA054630688103A2D47B
:1001E00000F006FA401B6528F7D3D1E700F000FACB
:1001F00005463068810396D500F0FAF9401B652862
:10020000F7D3C5E7206970B10121396000F0F0F93A
:1002100005463068810700F1B68000F0E9F9401B1F
:100220000228F6D9B4E7386000F0E2F905463168F3
:10023000880797D500F0DCF9401B0228F7D9A7E71B
:10024000086000F0D5F90546706A810770D500F0A6
:10025000CFF9401B0228F7D99AE708B9306A09E0BC
:100260000528306A06D140F004003062306A40F060
:10027000010005E0400840003062306A20F00400D0
:10028000306241F28938E06868B100F0B1F9814626
:10029000306A810700F1848000F0AAF9A0EB090020
:1002A0004045F5D374E700F0A3F98146306A810731
:1002B00076D500F09DF9A0EB09004045F6D367E73D
:1002C00000F096F9401B02287BD961E700F090F915
:1002D000001B022840F28F805AE700F093F8044692
:1002E0003068810140F18B8000F082F9001B022808
:1002F000F6D94DE701280AD07068226A00F48031EF
:10030000914202BF00F47010616A884277D00120E8
:1003100076E0DFF864020168C9084FF47A72B1FB35
:10032000F2F2009200BF0098411E00280091F9D11E
:100330002078410739D5F0690025C10009D4F0695A
:1003400040F08050F0610125F06900F0805000908D
:100350000098DFF83882D8F80000C1051BD4D8F81F
:10036000000040F48070C8F8000000F041F98146B8
:10037000D8F80000C1050ED400F03AF9A0EB09004E
:100380006528F5D304E73068616920F0F80040EA99
:10039000C1003060E6E6E06801287FF45EAF65E703
:1003A0001DB1F06920F08050F061E06938B37168E8
:1003B00001F00C0108299DD002288ED100F022F80E
:1003C0000546306881013FF57BAF206AB0F5803F7C
:1003D00005D17168A06821F4003101437160726831
:1003E000206A616A22F4741202430A437260012097
:1003F00000F009F80446306881017FF567AF0020FE
:10040000BDE8F2830020386600F0F2B82DE9F04133
:100410000400884672D05E4E00F077F802D200F0F9
:100420006FF86BD12068534D810712D5400703D573
:10043000696841F4E06169602078010703D5686864
:1004400040F4605068606968A06821F0F0010143E1
:1004500069602178C80749D56068012802D12968F8
:100460008A0303E00228296802D18A0102D445E008
:100470008A0743D56968890840EA8100686000F00E
:10048000B7F807466868616800F00C00B0EB810FB0
:100490002CD000F0ADF8C01B41F289318842F1D375
:1004A000032021E02078410705D56A68E06822F43E
:1004B000E06202436A602178080706D5696820690E
:1004C00021F4605141EAC001696000F023F86A68D4
:1004D0003049294BC2F30312895CC8401860284890
:1004E000006800F08BF80020BDE8F081306800F073
:1004F00007008045D6D200F003F8D3D00120F3E7FF
:100500003168C90848EAC1013160306800F007006D
:1005100040457047204919480A6802F00C03082B2F
:1005200000D0704710B500BF1EA4C2F38343D203AE
:10053000E35C08D5096858431EA3C1F340415A5CE7
:10054000B0FBF2F010BD18461449484310BD0A48EC
:10055000114A006813681249C3F3022206E00648F4
:100560000D4A006813680E49C3F3C222895CC84073
:1005700070470000001002400C00002000127A00BA
:100580000800002000004242800442420070004007
:10059000002002402C2C00080410024000093D00FD
:1005A000682C000802030405060708090A0B0C0D55
:1005B0000E0F1010010230B4002513E050F8042B88
:1005C000D30744BFA9F101039A18091F042942F86F
:1005D000045BFAD213468C0744BF15809B1CC907E5
:1005E00048BF1D7050F8041B0029E7D130BC70478C
:1005F00001484068704700BF0000002038B50D4D2D
:100600000D4B2A7804464FF47A711868B1FBF2F268
:10061000B0FBF2F000F054F850B9102C08D20022D0
:1006200021464FF0FF3000F023F8AC60002032BDCF
:10063000012032BD000000200C0000200901020052
:1006400002D4294881547047284B02F00F021A4403
:1006500002F8041C7047264B19684FF6FF0200028F
:10066000114000F4E06008432249084318607047D5
:1006700038B51F4B1C68C4F30223C3F10704052CD3
:1006800028BF04241D1D072D34BF0023DB1E0125B8
:1006900005FA04F4641E2140994005FA03F35B1E39
:1006A0001A401143BDE83440C8E7010007D40122D5
:1006B00000F01F01104B8A40400943F8202070478A
:1006C00010B5401EB0F1807F01D3012010BD0B4C4E
:1006D00060600F214FF0FF30FFF7B0FF0021A160F5
:1006E00007202060002010BD00E400E018ED00E0CD
:1006F0000CED00E00000FA0500E100E010E000E091
:10070000F8B5044600270026002C71D004F124051A
:10071000686820B9AE602870204600F064FA204670
:1007200000F0EEF96968CA065ED401005CD1696820
:1007300021F4885141F0020169606368E269217B1C
:100740001343A268B2F5807F14BF012A4FF480776B
:10075000227D012A43EA41030FD131B9A169491E23
:10076000490341F400610F4307E0696841F020014B
:100770006960A96841F00101A96021684A6822F412
:10078000694217434F602268DFF8501397680F40A3
:100790001F439760A168B1F5807F18BF012902D17E
:1007A0002669761E36052168CA6A22F4700216434D
:1007B000CE622468DFF82813A2680A409A4208D162
:1007C0000023AB60696821F0020141F0010169601A
:1007D000F2BD686820F0020040F010006860A86870
:1007E00040F00100A86003E0686840F01000686015
:1007F0000120F2BD044604F1240528780128704741
:1008000001202870204632E12DE9F0470446894650
:100810002068DFF8E012DFF8D482DFF8D472884273
:1008200018BF4045924603D1386810F4702F68D144
:10083000FFF7E1FF08BF022065D0FFF7E1FF0028C6
:1008400006465BD16968DFF8A002014041F480717F
:1008500069602068404518D1396811F4702F14D0B0
:10086000686840F4801068603968480505D5696893
:1008700021F4005141F4805169606868C10446BFA9
:10088000A86820F0060000200DE0696821F48011BE
:10089000696040684105F0D5686820F4005040F474
:1008A00080506860E9E7A860002129705346226AF9
:1008B0000FF291209062216A0FF2D120C862216A62
:1008C0000FF2D12008636FF00200226810604A46E0
:1008D0002068816841F480718160206800F14C01DA
:1008E000206A00F070FA206800F00FF881680CBFF1
:1008F00041F4A00141F48011816003E000202870E0
:1009000000E001263046BDE8F087816801F46021EF
:10091000B1F5602F704738B500F021F801D1022001
:1009200032BD00F022F8010016D129688A6822F44D
:1009300080728A60296A91F82120022A0CD1084627
:1009400000F07BFA0100616806BF21F4885141F094
:10095000010141F0400161600021217032BD054676
:1009600005F12404207801287047012020702846D2
:10097000C6E0F8B50A46002100F1240300911C7876
:10098000012C01D10220F2BD01241C701F275468E4
:1009900015680668072C08D2641E04EB8404D6F898
:1009A00034C000F05EF8756312E00D2C08D2E41F2D
:1009B00004EB8404D6F830C000F053F8356307E048
:1009C0000D3C04EB8404D6F82CC000F04AF8F56224
:1009D00007271668946805680A2E08D30A3E06EBB6
:1009E0004606D5F80CC000F036F8EC6006E006EBE1
:1009F0004606D5F810C000F02EF82C611468102CB3
:100A000018BF112C23D100683A4CA0421AD13A48A1
:100A100005682C021BD4056845F4000505601068C4
:100A2000102814D12F4A354D1468B4FBF5F50A206F
:100A300045430095009800281EBF0098401E009076
:100A4000F8D104E00121586840F0200058600020EF
:100A500018700846F2BDB7402CEA0707B4403C4383
:100A60007047A7402CEA0707A5403D43704738B5BB
:100A700004460020009020688168CA072AD4816853
:100A80001E4A41F00101816016480168B1FBF2F293
:100A9000009202E00098401E009000980028F9D1D2
:100AA000FFF7A6FD054620688168C80712D4FFF746
:100AB0009FFD401B0328F6D304F124000022416867
:100AC00041F010014160816841F0010181600270D4
:100AD000012032BD002032BD00000000FDF7E1FF23
:100AE000FE0E1FFF0C000020FEF1FFFF002801405A
:100AF00004240140002401400824014040420F002A
:100B000038B5044620688168CA0719D58168490844
:100B100049008160FFF76CFD054620688168C807C1
:100B20000ED5FFF765FD401B0328F6D3A06A40F001
:100B30001000A062E06A40F00100E062012032BDD6
:100B4000002032BD416A8A6A12F0500F1BD1886AB8
:100B500040F4007088620A68906800F46020B0F584
:100B6000602F04BF087B00280AD1886A20F48070B7
:100B70008862886AC20403D4886A40F001008862EF
:100B8000084600F04ABA096A0A6B1047406A00F04A
:100B900045BA0000406A816A41F040018162C16A41
:100BA00041F00401C16200F03ABA0000664881B029
:100BB000016841F001010160026802F00102009247
:100BC0000099426842F080524260406800F08050D4
:100BD000009000985D48016821F0E06141F00071EB
:100BE000016001B0704778B585B000F050F8256815
:100BF000574EB5422FD15448564D016841F400710B
:100C000001600323026802F4007200F045F81E221E
:100C1000006800F00400009000990192029301A97D
:100C20004D4800F0FDF94D48286000218020E86023
:100C300069604FF4806000224FF480716861AA609F
:100C40002961AA61EA61284600F090F808B100F035
:100C500033FC25626C6206B070BD30B585B000F023
:100C600016F824683E4DAC420FD100F052F841F422
:100C700080510160026802F4805200F00DF8A0215A
:100C800000F053F8402000F048F805B030BD0446AD
:100C900001A8102100F016BC00920099026842F0F1
:100CA00004020260704700682E49884200D07047F5
:100CB00080B52548026842F40062026000220068A4
:100CC00000F400600090002100981920FFF7D0FC8C
:100CD000BDE802401920FFF7E8BC30B585B0FFF74A
:100CE000D6FF2468204DAC4211D100F012F841F437
:100CF00080410160026802F48042FFF7CDFF4FF4AB
:100D0000007100F012F84FF4806000F006F805B0B2
:100D100030BD0D48104C01687047002101900291D0
:100D20000391204601A900F07BB9006800F004009F
:100D30000090022200980191029203210491204622
:100D400001A900F06DB90000181002400400014034
:100D5000002401402001002000080140080002405A
:100D600000300140002C01400038014030B508B986
:100D7000012030BD0468DFF85C120919142200F16B
:100D80003803B1FBF2F292009A600222DFF84812B7
:100D9000596080F821202568416882686FF30D153D
:100DA0000D43C168154302690D43416915438269CA
:100DB0000D43C16915430D43256000241C6000F0FC
:100DC00061F8002030BDF8B50446002594F82000F5
:100DD000012801D10220F2BD94F821600120012EEA
:100DE00084F8200024D1022004F12C0684F821008C
:100DF000F560206807687F087F000760204600F0E4
:100E0000FBF82168306820B10A6842F00E020A60DF
:100E100008E0086820F0040008602068016841F0DC
:100E20000A0101602068016841F00101016002E0EF
:100E300084F8205002252846F2BD10B590F8211004
:100E4000022900F1380206D004231360002180F843
:100E50002010012010BD01680B6823F00E030B6009
:100E6000012301680C68640864000C609168526892
:100E70008B4053600121002280F8211080F820204F
:100E8000002010BD012280F8212080F8204070470A
:100E90002DE9F84F00F1280204275169544BD1F88D
:100EA00000E0056853492E68D2F818A04F4CDFF8CF
:100EB0003881DFF83091DFF828B1DFF820C107FA78
:100EC0000AF71EEA070F2DD077072BD52E68B60636
:100ED00003D42E6826F004062E600568654508BF19
:100EE000042318D05D4508BF402314D04D4508BFEA
:100EF0004FF480630FD0454508BF4FF480430AD0BC
:100F0000A54208BF4FF4802305D09D420CBF4FF48B
:100F100080034FF080630B605168002958D0BDE812
:100F2000F44F0847022707FA0AF71EEA070F32D0E4
:100F3000B70730D52E68B60606D42E6826F00A0606
:100F40002E60012580F821500568654508BF022301
:100F500018D05D4508BF202314D04D4508BF4FF47D
:100F600000730FD0454508BF4FF400530AD0A54287
:100F700008BF4FF4003305D09D420CBF4FF400135F
:100F80004FF000730B60002180F820101168F9B158
:100F9000BDE8F44F0847082101FA0AF11EEA010FE3
:100FA00016D0310714D52B6823F00E032B600124D3
:100FB000916953698C405C600121116180F82110B6
:100FC000002180F82010916811B1BDE8F44F084766
:100FD000BDE8F18FF8FFFDBF0000024008000240AD
:100FE0001C00024030000240440002405800024011
:100FF0006C0002400400024070B5046CC66B012511
:10100000A5407560046863604068102802D1A26042
:10101000E16070BDA160E26070BD704770477047CD
:101020002DE9F8470027BE46664A674B4FF00F0888
:1010300082460BE0D6683040D06006E094604C6891
:10104000A402F7D5D0680643D6607F1C0E6836FA36
:1010500007F000F0A380012000FA07F52E40AE4211
:10106000F3D1486858B301281AD002281FD00328AA
:1010700033D0112817D012281DD0544CA0421CBFC9
:10108000534CA0421BD0534CA0421CBF524CA04218
:1010900015D0524CA0421CBF514CA0420FD01EE0B4
:1010A000D1F80CE01BE0C86800F1040E17E0C86836
:1010B00000F1080E13E0C86800F10C0E0FE088681C
:1010C00010B94FF0040E0AE001284FF0080E14BFCB
:1010D000CAF81450CAF8105001E04FF0000EB6F5EF
:1010E000807F03D250464FEA870C05E0A7F1080441
:1010F0000AF104004FEA840C046808FA0CF5AC43CA
:101100000EFA0CF52C4304604868C0009DD51868A1
:10111000DFF8D0C040F0010018601C6804F0010442
:101120000094BC000098B8085CF8205004F00C044F
:1011300008FA04F925EA09092B4DAA4508BF00253C
:101140000ED02A4DAA4508BF012509D0284DAA4531
:1011500008BF022504D0274DAA450CBF032504254E
:1011600005FA04F444EA09044CF82040F0434C68C2
:10117000E40314684CBF3443044014604C68A40377
:1011800054684CBF3443044054604C689568E40292
:101190004CBF46EA050400EA05044FE7BDE8F187C5
:1011A0008068084018BF0120C0B2704702B9090426
:1011B00001617047C26801EA0203914341EA0341B9
:1011C0000161704700040140181002400000111036
:1011D0000000121000002110000022100000311049
:1011E000000032100800014000080140000C0140DE
:1011F0000010014000140140F8B586B000F066F917
:1012000000F09CF800F0D3F899489A4C016841F03E
:10121000010101600022006800F00100009000213F
:1012200000980B20FFF724FA0B20FFF73EFA9248B4
:1012300020634FF482710020A063E0632064606447
:1012400061634FF40070A0641821E1640020206500
:101250006065A0650A21E16504F1300000F048F9FD
:1012600002A800F0A1F800BF94A004F18805D0E91D
:10127000006782482864CDE9006741F61F41696430
:101280000020A864092128656865A865E96404F15F
:10129000C806304600F002FB4FF48050029002A9CD
:1012A000304600F0FBFB0021009101913046694679
:1012B00000F0C0FC684600210022002380E80E00F8
:1012C000012020734FF46020E061042020614FF47E
:1012D00080776B4E217561602660A7602046FFF71E
:1012E0000FFA0120009001900022029269462046E8
:1012F000FFF73FFB022100F01BF8032100F018F874
:10130000042100F015F85F4828604FF4E1310C200B
:10131000002268616960AA60EA602A61AA61EA61E4
:10132000284600F0B9FC00F0BDFD00F0EDFDFCE743
:101330000091019120466946FFF71BBB00B593B0B1
:1013400009A8282100F0BEF804A8142100F0BAF87A
:1013500000F029F84FF4803100220A910B9211918C
:10136000012009900D9002224FF4E0111092129189
:1013700009A8FEF7BBFE022105910F204FF4806102
:1013800004900022079106920892022104A8FFF718
:101390003DF802214FF4004200910292684600F0AD
:1013A000A9FF13B000BD6846102100F08BB878B5D6
:1013B00085B0FFF7F8FF3448344E0468344D44F0EC
:1013C000100404600168334C01F010010491049989
:1013D000026842F020020260036803F020030493D5
:1013E0000499026842F004020260036803F00403F7
:1013F00004930499026842F0080202600022006827
:1014000000F0080004904FF4604104983046FFF764
:10141000CDFE002203212046FFF7C8FE00224FF434
:1014200000412846FFF7C2FE4FF4604100F03BF850
:101430003046FFF7F5FD41F6011000F02DF8284683
:10144000FFF7EEFD032100F02EF82046FFF7E8FD40
:101450004FF6F87000F020F82046FFF7E1FD4FF45A
:10146000004100F020F82846FFF7DAFD06B070BD15
:10147000141002401000002000300140002C0140F8
:1014800000240140003801401810024000100140C3
:1014900000080140000C014000210090019102224F
:1014A0000292694670470091012201920021029147
:1014B0000222039269467047704700000000000056
:1014C00000000000002200F0EFBF000080B50748D8
:1014D000016841F0100101600320FFF7BCF8002013
:1014E000FFF78CF8FFF762FB002002BD00200240EE
:1014F00038B5040001D1012032BD606A28B900F07E
:101500004CF805D00021E16102E00020206160611B
:101510000020A06204F15005687820B900212970EC
:101520002046FFF79AFB0220687000F03CF96068E3
:10153000A168E26800F4827001F404410843217C50
:1015400002F400621043227D01F002010843A16908
:1015500002F001021043227F01F40071084394F865
:10156000201002F038021043A26A01F08001084303
:10157000216802F4005210430860A0692168000C41
:1015800000F0040048602068C16921F40061C16175
:10159000002068600121697032BD6068B0F5827F0B
:1015A00070472DE9FC4700F0DDF84FF0010808BF57
:1015B000022000F0BC809A4687F80080FFF718F8F8
:1015C0007B78012B09D06968B1F5827F02BFA968D9
:1015D0000029042B01D00226A4E0002C1CBFB9F185
:1015E000000FBAF1000F01D101269BE07B78042B9C
:1015F0001CBF052179707E60C5F83890A5F83EA023
:10160000A5F83CA02C63A5F836A0A5F834A02E645C
:101610006E6429680C68630603D40C6844F04004C7
:101620000C60E9680A9CB1F5006F696838D100293F
:1016300018BFBAF1010F00F0AAF88146E88E002821
:1016400004BFE88F002874D02968886882070BD50A
:10165000E88E002818BFB8F1000F05D0286B02886B
:10166000CA60B04600F070F829688868C2070CD5D7
:10167000E88F50B1C868A96B08804FF00108A86BCB
:10168000821CAA63E88F411EE987FEF7B1FFA0EB39
:101690000900A042D2D314F1010FCFD0032641E0BC
:1016A000002918BFBAF1010F00F065F88146E88EF5
:1016B000002804BFE88F00283BD02968886882078B
:1016C0000DD5E88E002818BFB8F1000F07D0286BA1
:1016D00002780A73B046286B411C00F037F829687D
:1016E0008868C2070CD5E88F50B1C868A96B08702C
:1016F0004FF00108A86B421CAA63E88F411EE987DE
:10170000FEF776FFA0EB0900A04203D314F1010F0E
:10171000CDD0C3E7002CCAD1C0E7A86810B900F04B
:101720001AF8009801217970002038703046BDE821
:10173000F68721464A46284600F09CF80028ECD05F
:10174000202101267960EDE7286B811C2963E88E52
:10175000411EE986704700962968CA680092896828
:1017600000917047054605F150070026387801289A
:101770000C469146704709D1296B2B680A781A7379
:10178000296B4A1C2A63E98E4A1EEA86704709D1F2
:10179000296B2B680A88DA60296B8A1C2A63E98E18
:1017A0004A1EEA8670472068016821F04001016006
:1017B000704700002DE9F843089C05460E46904608
:1017C0001F46FEF715FF381A2418FEF711FF814651
:1017D000314801684901090D6143009105E0009815
:1017E00000B900240098401E0090286881683140AC
:1017F000B1420CBF01200020404532D017F1010F4B
:10180000F3D0FEF7F5FEA0EB0900A04201D2002CB8
:10181000E5D12868416821F0E00141606868B0F5D1
:10182000827F08D1A868B0F5004F18BFB0F5806F6F
:1018300001D100F019F8A86AB0F5005F09D1286855
:10184000016821F4005101602868026842F40052E6
:10185000026005F150000121417000220270032056
:1018600000E00020BDE8F2832868016821F0400113
:10187000016070471CB500920B460446002280218F
:10188000FFF798FF08B100F001F816BD606D40F059
:1018900020006065032070470C00002038B504006C
:1018A00001D1012032BD00F04BF818B900F044F826
:1018B000FFF7F9F92DE090F83D10012901D0012042
:1018C0007047022180F83D100168CA6842F00102A9
:1018D000CA600068DFF87010884218BFB0F1804F0E
:1018E00007D0DFF8681088421CBFDFF86420904200
:1018F00009D1816801F00701062908D0016841F08B
:101900000101016003E0026842F001020260002070
:10191000704702206870211D206800F01CF901202A
:10192000A872A870E87028716871A871E8712872AF
:1019300068726870002032BD00212970204670470F
:1019400004F13C0568787047002C01400004004019
:101950000008004010B50446206801698A0715D5C3
:10196000C1688A0712D56FF0020101610122227756
:10197000806910F0030F204602D000F0AEFD03E0B6
:1019800000F0ACFD00F087F80020207720680169A6
:101990004A0715D5C1684A0712D56FF004010161E5
:1019A00002222277806910F4407F204602D000F0A6
:1019B00094FD03E000F092FD00F06DF80020207728
:1019C000206801690A0715D5C1680A0712D56FF0AA
:1019D0000801016104222277C06910F0030F20463C
:1019E00002D000F07AFD03E000F078FD00F053F83B
:1019F0000020207720680169CA0615D5C168CA068B
:101A000012D56FF01001016108222277C06910F42D
:101A1000407F204602D000F060FD03E000F05EFD54
:101A200000F039F80020207720680169CA0708D53E
:101A3000C168CA0705D56FF001010161204600F0B9
:101A40004EFD206801690A0608D5C1680A0605D559
:101A50006FF080010161204600F042FD20680169BD
:101A60004A0608D5C1684A0605D56FF040010161F4
:101A7000204600F036FD206801698A060AD5C16853
:101A80008A0607D56FF0200101612046BDE81040AD
:101A900000F028BD10BD204600F025BD38B500F08F
:101AA0004EF801D1022032BD012020700222627066
:101AB000DFF800012A689368034093600868020019
:101AC00018BF10282DD0202818BF302829D0402832
:101AD00023D0502816D0602818D0702803D0B0F535
:101AE000005F07D021E000F025F82868816841F008
:101AF000770105E000F01EF82868816841F4804114
:101B0000816012E000F012F850210BE0CA684968C9
:101B1000286800F068F8602104E000F007F8402130
:101B200000E00146286800F070F80EE0CA684968D5
:101B3000286849E0CB684A68896828686DE00546EE
:101B400005F13C04207801287047012060700021D5
:101B50002170002032BD70B5174E0368174C184D28
:101B6000B04218BFB0F1804F03D0A84218BFA042C6
:101B700009D14A6823F070031343B0421CBFB0F18F
:101B8000804FA84201D0A04203D1CA6823F4407319
:101B900013434A6923F0800313430360B0428B6808
:101BA000C3620A68826202D10969064A1160012390
:101BB000436170BD8800FFFF002C01400008004019
:101BC00000040040302C014010B5036A046A640828
:101BD0006400046223F00A03846924F0F00444EAF8
:101BE0000214846123E010B5036A23F0100303623A
:101BF0008369046A23F4704343EA023324F0A004A7
:101C0000836144EA0114046210BD826822F070020C
:101C1000114341F007018160704710B5846824F4D6
:101C20007F442143114341EA0321816010BD1943E0
:101C3000016210BD70B500F13C031A78012A01D190
:101C4000022070BD01221A7002245C7005686E6863
:101C5000AC680A6826F0700616436E6002680B488E
:101C6000824218BFB2F1804F05D0094882421CBFA2
:101C7000084DAA4204D1486824F0800404439460CB
:101C8000012159700020187070BD0000002C014027
:101C9000000400400008004038B5040001D10120D4
:101CA00032BD00F021F808B900F022F800F012F877
:101CB00000F023F8FFE7416100F001F832BD206831
:101CC000C16841F40051C160002068602021697042
:101CD000A9707047242068702068C16821F4005101
:101CE000C160204600F09EB804F13805687870475E
:101CF000002129702046FEF7F0BF2068016921F419
:101D0000904101612068416921F02A0170472DE965
:101D1000F843054605F138060C467078202817462A
:101D2000994642D10CB1380001D101203EE0307813
:101D300001283AD001213170002070602122727098
:101D4000FEF756FCAF848046EF84A868B0F5805F4C
:101D500004BF286900280EBF27462046002700211F
:101D6000317004460EE014F8012B426007E0286849
:101D7000002CF8D137F8021BC1F308014160E88C50
:101D8000411EE9844346E88CCDF8009000280FD02E
:101D900000228021284600F013F80028E7D0032015
:101DA00004E020207070002000E00220BDE8F283F3
:101DB00000224021284600F003F80028F1D0EEE789
:101DC0002DE9F041069C05460E4690461F462868C0
:101DD00001683140B1420CBF01200020404517D1BD
:101DE00014F1010FF3D024B1FEF702FCC01B8442B2
:101DF000EDD22868C16821F4D07100F00CF805F12B
:101E0000380020214170817000210170032000E022
:101E10000020BDE8F081C160286841694908490097
:101E20004161704710B5044622681169E06821F4E9
:101E3000405101431161D3681849A0680B402169E2
:101E4000034360690B430343D3605169A06921F4E4
:101E500040710143516112498A4202D1FEF77FFB72
:101E600001E0FEF774FB6268192148439200B0FB61
:101E7000F2F16423B1FBF3F203FB121109013231D9
:101E8000B1FBF3F000F0F00101EB0211226800F069
:101E90000F004018906010BD00000000F3E9FFFF44
:101EA0000038014010B54FF4FA7000F01DFBDFF868
:101EB000DC434FF4005200F024F84FF4804200F06D
:101EC00020F84FF4004200F01CF84FF40042DFF815
:101ED000C013002000F072F9DFF8B803FFF7EBFC45
:101EE000642000F001FB00F095FB00F09BF9DFF8A7
:101EF000A8130C2008704FF4FA70BDE8104000F0F1
:101F0000F3BA2146002059E110B500F03CF8DFF8A3
:101F10008C43DFF88C032178017062784270A178DD
:101F20008170E278C270B4F90C100171091241712C
:101F3000B4F90E1081710912C171B4F91410017253
:101F400009124172B4F9161081720912C172D54892
:101F50000168C92903D30022026000F039F9D24890
:101F6000016840F6B93291420CD3A1F6B933092B7E
:101F70003CBF0122E27140F61D43994202D3002189
:101F80000160E17110BD70B5C44CC04D20794FF4B3
:101F90000052294600F012F960794FF48042294638
:101FA00000F00CF9A07900F0E5F8B94DE07900F007
:101FB000E1F86078BD4E082200F0E8F8617860F33F
:101FC000000161701022607800F0DCF8617860F345
:101FD000410161704FF4807260783146C0F3801027
:101FE00000F0D8F8617860F3861161704FF40072E8
:101FF000A07800F0CBF8A17860F300016078A170C0
:1020000000F07F0060704FF40062A07800F0BAF832
:10201000A17860F34101A1704FF48062A07800F0D4
:10202000ADF8A17860F38201A1704FF4805220785E
:1020300000F0ACF8217860F3000121704FF40052F9
:10204000207800F09FF8217860F3410121704FF46F
:102050008042207800F092F8217860F382012170AC
:102060004FF40042207800F07DF8217860F3C3013E
:1020700021704FF48072207800F078F8217860F3B6
:10208000041121704FF4006220782946C00900F045
:1020900081F8217801F07F0141EAC01121702022EE
:1020A000607800F06BF8617860F382016170402223
:1020B000607800F057F8617860F3C3016170012225
:1020C000607800F053F8617860F304116170802249
:1020D00060783146C0F3401000F05CF8617860F33E
:1020E00045116170207A002836D000212172704D90
:1020F0002846FEF710FCA18BB4F91200081A40F232
:10210000691100F1B4028A4238BF0020E081E28BFD
:10211000B4F9100000F021F838BF0020A081228C13
:10212000B4F91A0000F019F838BF0020E082628C80
:10213000B4F9180000F011F838BF0020A08204F1B3
:102140001C010020A083E0832084608404222846B0
:10215000BDE87040FEF758BB70BD101A00F1B40323
:102160008B4270473146C0F3C00013E02946C0F3EC
:1021700000100FE04FF4004229461FE03146C0F343
:10218000800007E03146C0F3400003E0314600F034
:102190000100FFE770B504460D4616463146284655
:1021A000FEF7FEFF844207D031462846FEF7F8FFCF
:1021B0000446404900200860204670BD0B46114689
:1021C00001280CBF002201221846FEF7EFBF0000D5
:1021D00038B500BF39A0304D314C00F0A6F9297850
:1021E000204600F0AFF900BF37A000F09EF9297833
:1021F000204600F0D5F930490128087004D009D3F1
:10220000032805D002D305E01EA004E031A002E0BF
:1022100032A000E035A000F088F9BDE832401AA0F5
:1022200000F083B938B5224C1C4D204600F06AFA04
:10223000102205F11C012046FEF7E6FA322000F0DC
:1022400053F9287AE8B1002129722046FEF763FB92
:10225000B5F91C0028821022B5F91E106982B5F963
:10226000200028830020B5F922106983A883E88321
:102270002884688405F11C012046BDE83840FEF73B
:10228000C3BA31BD4F4B00000D0A000000100140E1
:1022900000080140D8000020B401002064010020A3
:1022A00088010020AC010020B0010020000C01409A
:1022B00010000020A8010020B50100205041594C19
:1022C0004F41443A3E0000003C202E2E2E20545810
:1022D0003A20000054494D454F5554004D41582077
:1022E00052455452414E534D495400004552524FAD
:1022F000520000002DE9FC410646604D3078C107D0
:1023000050D5A8690024C10009D4A86940F08050C4
:10231000A8610124A86900F0805000900098584FEF
:102320003868C10519D4386840F480703860FEF709
:102330005FF980463868C1050FD4FEF759F9A0EB64
:1023400008006528F6D303203FE0FEF751F9C01BD3
:1023500041F28931884217D3F5E7E86910F44070FB
:102360001EBF716801F44071884210D04549E86988
:1023700001220A60002320F440700B60E861C0076E
:1023800005D5FEF735F90746E8698107DDD5EA6925
:10239000706822F440720243EA611CB1A86920F01F
:1023A0008050A8613078810705D52A68B06822F48A
:1023B000404202432A603178C80605D52968F06892
:1023C00021F48001014329600020BDE8F68100006E
:1023D00010B5002101282C4C25D0022843D010280C
:1023E0004AD160682268D30146D500BF29A1C0F355
:1023F0008342C003895C0CD5606800BF29A3234ACF
:10240000C0F34040185CB2FBF0F308461946414364
:1024100001E01F4A5143606842022DD44900032065
:10242000B1FBF0F128E0206A40F202320240B2F53E
:10243000817F08BF4FF400411ED000F44072B2F516
:10244000007F05D1626A930748BF49F6404113D423
:1024500000F44070B0F5407F0ED1206882030BD5A8
:102460004FF2244108E0FEF77AF86168C1F3813148
:10247000491C4900B0FBF1F1084610BD04100240B0
:1024800000700040400442420010024000127A00F6
:1024900000093D0002030405060708090A0B0C0D9C
:1024A0000E0F10100102000000B500BF1300964689
:1024B0009446103928BFA0E80C50FAD85FEA417C56
:1024C00028BF0CC048BF40F8042BC90728BF20F81C
:1024D000022B48BF00F8012B00BD704770477047C2
:1024E000704770477047704738B50446FEF780F86C
:1024F00014F1010F054602D0044908780419FEF7CB
:1025000077F8401BA042FAD331BD00BF0000002085
:10251000002201216148FEF749BE01B5C82301220E
:1025200069465F48FFF7F3FB01BD10B5044600F0B4
:102530004FF92146BDE8104082B2C8235848FFF742
:10254000E6BB00002DE9F041054688465FF0000734
:1025500056A40BE015F8016B300906F00F06205C5D
:10256000FFF7DBFFA05DFFF7D8FF7F1CB8B2404547
:10257000F0D3BDE8F081000038B504460009C10879
:1025800000EB11725FEA121248A5A0EB021004F0F2
:102590000F04285CFFF7C1FF285DBDE83240BCE7AF
:1025A00038B50446404800900D46FFF7B1FF294674
:1025B000204600F089FA012201213848FEF7F6FD95
:1025C00000F06CFA044614F0300004D10098411E6B
:1025D00000280091F4D1FFF79BFF009808B9022072
:1025E00032BD2CA0FFF7A1FF2046FFF7C5FF2AA0B0
:1025F000FFF79BFF00F05DFAE00601D5032032BD36
:10260000A00601D5012032BD00F04DFA002032BDF8
:102610000000000080B500BF29A0FFF786FFFFF78C
:1026200077FF00BF2DA0FFF780FF00F09DF958B99C
:102630002FA0FFF77AFF4FF400511A48FEF7BAFDBA
:102640003220FFF751FFF6E72BA0FFF76EFF00F0F7
:1026500041F9FF2000F010FA732000F0C7F92020A4
:1026600000F0FCF90C2000F0B4F9032000F0BFF9F1
:1026700023A1062000F0C0F9062000F0E7F90020B1
:1026800000F09CF900F015FABDE80240022000F0CD
:1026900088B900005B0000005D200000000C0140D4
:1026A0009800002000100140FFFF0F00303132334E
:1026B000343536373839414243444546000000003E
:1026C0000D0A53544D33324C3433324B432069732B
:1026D000206F6E6C696E652E0D0A00006E524632D8
:1026E000344C30312B20636865636B3A2000000066
:1026F0004641494C0D0A00004F4B0D0A00000000F6
:10270000E71CE300F8B50446002004F1240600901D
:102710003178012901D10220F2BD0120307020461C
:10272000FEF7EEF9050047D1706820F4885040F0BC
:10273000020070600220FFF74BFE00F041F84000FD
:1027400001E00098401E009000980028F9D1204632
:10275000FEF78DF92068816841F008018160FDF77E
:1027600047FF0746206881680A0714D5FDF740FF38
:10277000C01B0B28F6D304E0FDF73AFFC01B0B2863
:1027800010D3706820F0020040F01000706000204C
:1027900030700120F2BD816841F004018160FDF7D5
:1027A00027FF0746206881684807E5D4716821F053
:1027B000020141F001017160002030702846F2BD35
:1027C000DFF808100A68B2FBF0F070470C00002038
:1027D00000F10103810704D010F8011B820781B1C9
:1027E000FAD10268A2F10131914311F0803104BFA6
:1027F00050F8042FF6E709BAB1FA81F100EBD100E5
:10280000401CC01A70470000002200E00122022193
:102810000948FEF7CBBC01B582B04FF4FA600090D6
:10282000012301AA02A90548FEF7BBFE08B1FEF785
:1028300043FE9DF804000EBD000C01404000002046
:1028400010B50446FFF7E0FF04F01F00FFF7E3FFB9
:10285000FF20FFF7E0FF0446FFF7D8FF204610BD3A
:1028600038B504460D46FFF7CFFF2046202806DA8C
:1028700004F01F0444F02000FFF7CDFF09E0FFF74C
:10288000CAFFE12C18BFE22C06D0E32C18BFFF2CA6
:1028900002D02846FFF7BFFFBDE83140B6E770B56C
:1028A00000F014F82046FFF7B6FF04E0FF20FFF722
:1028B000B2FF05F8010B3046461EC0B20028F5D124
:1028C00014E170B500F002F8204605E104460D461B
:1028D000164699E780B508210020FFF7C1FF3F2188
:1028E0000120FFF7BDFF03210220FFF7B9FF0321FD
:1028F0000320FFF7B5FF03210420FFF7B1FF0221FA
:102900000520FFF7ADFF0E210620FFF7A9FF0021EC
:102910000720FFF7A5FF00211120FFF7A1FF0021ED
:102920001220FFF79DFF00211320FFF799FF0021E0
:102930001420FFF795FF00211520FFF791FF0021DC
:102940001620FFF78DFF00211C20FFF789FF0021D3
:102950001D20FFF785FF00F0A9F8FF21E120FFF718
:102960007FFF00F0A6F8B4E03EB50FF28814052210
:1029700021463020FFF7A5FF052269461020FFF70A
:102980008EFF0020C2B214F8015B1DF80230AB428A
:1029900005D1401CC1B20529F4DB01203EBD002059
:1029A0003EBD10B500F012F8022C0CBF40F0020042
:1029B00000F0FD00BDE81040014615E010B500F044
:1029C00005F800F0FE0004F0010409E004460020D0
:1029D00036E710B5FFF7FAFF00F0F30004F00C043F
:1029E00044EA0001BDE81040002039E758E0811EAC
:1029F000C9B2032034E70000F8B501280C460546AB
:102A00003EA604D9801E03281AD9001F1DD1032019
:102A1000FFF716FF471CF9B20C44FFF7F5FE705D97
:102A200040F02000FFF7F7FE14F80109FFF7F3FE6E
:102A30003846471EC0B20028F6D1BDE8F140E5E6B1
:102A40002178705DBDE8F4400AE7F1BD10B5044699
:102A50000620FFF7F5FE00F0F90006E010B5044689
:102A60000620FFF7EDFE00F0D70044EA0001BDE8C4
:102A700010400620F4E6000010B506280446A8BF62
:102A8000002107DA0120FFF7DBFE012101FA04F43F
:102A900020EA0401BDE810400120E1E60720CFE66E
:102AA00001460520DCE6FF21E120D9E6FF21E220F6
:102AB000D6E680B500F006F8BDE8044040F07001AD
:102AC0000720CDE60720BBE60A460146A020F8E62F
:102AD0000000BDE8014099E601E015F8010BFFF7A1
:102AE0009AFE3046461EC0B20028F6D1BDE87040BE
:102AF0008CE600006E524632340000000A0B0C0DCA
:102B00000E0F10007047FEE7FEE7FEE7FEE7704796
:102B10007047704700F020B880B50B48FEF7B8F951
:102B20000A480121017001BD80B50948FEF712FF76
:102B3000084801684268491C0160521C8168426073
:102B4000491C816001BD0000200100206C010020B3
:102B5000D8000020A801002002494A68087882189D
:102B60004A6070470000002030B450F8041B79B16F
:102B70000268436802440830DC0744BFA9F101043D
:102B8000E31852F8045B43F8045B091FF9D1ECE742
:102B900030BC704710B5074979441831064C7C4465
:102BA000163404E00A68081D114488470146A14212
:102BB000F8D110BD0800000028000000FBD9FFFF7D
:102BC000A801000010000020000000009DFFFFFF92
:102BD000100000007800000000000020000000004D
:102BE00000F00DF8002801D0FFF7D4FFAFF300800C
:102BF0000020AFF30080FEF7FFFA00F002F801209A
:102C0000704700F001B800000746384600F002F8AF
:102C1000FBE7000080B5AFF30080024A11001820E6
:102C2000ABBEFBE72600020070470000000000007A
:102C3000000000000102030406070809014880475C
:102C400001480047292C00085D2C00080100000005
:102C500000000000100000000024F400AFF300802A
:102C6000AFF30080FFF7BCFF000000000102030487
:102C7000FFF7FEBFFFF7FEBFFFF7FEBFFFF7FEBF88
:102C8000FFF7FEBFFFF7FEBFFFF7FEBFFFF7FEBF78
:102C9000FFF7FEBFFFF7FEBFFFF7FEBFFFF7FEBF68
:102CA000FFF7FEBFFFF7FEBFFFF7FEBFFFF7FEBF58
:102CB000FFF7FEBFFFF7FEBFFFF7FEBFFFF7FEBF48
:102CC000FFF7FEBFFFF7FEBFFFF7FEBFFFF7FEBF38
:102CD000FFF7FEBFFFF7FEBFFFF7FEBFFFF7FEBF28
:102CE000FFF7FEBFFFF7FEBFFFF7FEBFFFF7FEBF18
:102CF000FFF7FEBFFFF7FEBFFFF7FEBFFFF7FEBF08
:102D0000FFF7FEBFFFF7FEBFFFF7FEBFFFF7FEBFF7
:042D1000FFF7FEBF0C
:0400000508002C5D66
:00000001FF
