:020000040800F2
:10000000B0050020952D0008812B0008832B0008E7
:10001000992B0008AF2B0008F52B0008000000000A
:100020000000000000000000000000000B2C000891
:100030000D2C0008000000000F2C0008112C0008F7
:10004000B92D0008BD2D0008C12D0008C52D0008E0
:10005000C92D0008CD2D0008D12D0008D52D000890
:10006000D92D0008DD2D0008E12D0008152C000811
:10007000E52D0008E92D0008ED2D0008F12D000800
:10008000F52D0008F92D0008FD2D0008012E0008AF
:10009000052E0008092E00080D2E0008252C00084A
:1000A000112E0008512C0008152E0008192E0008EA
:1000B0001D2E0008212E0008252E0008292E0008DC
:1000C0002D2E0008312E0008352E0008392E00088C
:1000D0003D2E0008412E0008452E0008492E00083C
:1000E0004D2E0008512E0008552E000800F0D0BB00
:1000F00038B5DFF86007DFF86047DFF8605700F0D9
:10010000F3FB4FF40052214600F0D4F84FF4804244
:10011000214600F0CFF84FF40042214600F0CAF823
:1001200000F0C5F8642000F0B3FB00220121DFF8E5
:10013000300700F077FE002400F074FF00B10124C6
:100140004FF40041284600F071FE3220FFF7CEFF49
:10015000002CF1D000F01CFFFF2000F0EBFF73201B
:1001600000F0A2FF202000F0D7FF0C2000F08FFF4E
:10017000032000F09AFF0FF21471062000F09AFF9E
:10018000062000F0C1FF002000F076FF00F0EFFF36
:10019000022000F064FF00F00CFADFF8C8160C2013
:1001A00008704FF49670BDE8324000F071BB38B56E
:1001B00000F082F8DFF8B006DFF8A0460168DFF84B
:1001C000AC56C9291ED30022026000F0C5F9687838
:1001D000C0F3801098B1A87A40B9288E401C2886B8
:1001E00000B20A280EDD0120A8850EE0688E401CB2
:1001F000688600B20A2805DD0120E88502E00021BA
:1002000029866886B5F92C0010B1696B012004E0DD
:10021000B5F92E0020B1696B022000F091FA0FE0D1
:1002200000F0F7F9687B012802D100F072FA07E0CC
:100230004FF40041204600F0F9FD3220FFF756FF51
:10024000DFF82C06DFF82C26016891422AD3002320
:1002500003604FF40052DFF8005600F02AF84FF424
:10026000804200F026F800F022F84FF400422146C8
:10027000012000F068F9002000F0F1FEDFF8D4550D
:10028000284600F05FFB284600F023FB00F098FFB3
:100290000121012000F09FFF00224FF40041204681
:1002A00000F0C0FDBDE83240032000F0F1BA4FF489
:1002B00000422946002046E170B5DFF8B045DFF87E
:1002C000985520794FF40052294600F03CF96079A6
:1002D0004FF48042294600F036F9A0794FF40042ED
:1002E000294600F030F9DFF87465E0794FF40042F8
:1002F000314600F028F92078DFF864554FF4805239
:1003000000F000F9217860F3000121704FF40052F1
:10031000207800F0FFF8217860F3410121704FF45C
:100320008042207800F0F2F8217860F38201217099
:100330004FF40042207800F0E1F8217860F3C30127
:1003400021704FF4807220783146C0F3001000F025
:10035000E5F8217860F3041121704FF400722078E1
:100360003146C0F3401000F0D9F8217860F3451110
:1003700021704FF4806220783146C0F3801000F085
:10038000CDF8217860F3861121704FF40062207857
:100390003146C00900F0C2F8217801F07F0141EA3E
:1003A000C01121700822607800F0ACF8617860F329
:1003B000000161701022607800F0ACF8617860F3A1
:1003C000410161702022607800F0A0F8617860F34C
:1003D000820161704022607800F090F8617860F3EB
:1003E000C3016170802260782946C0F3401000F09C
:1003F00095F8617860F3451161704FF48072294679
:100400006078C0F3801000F089F8617801F0BF01D6
:1004100041EA8011A07801F07F0100F0FE006170D8
:10042000A0704FF4006200F075F8A17860F341010C
:10043000A1704FF48062A07800F068F8A17860F3B2
:1004400082016078A170C0F30010010008D04FF461
:100450000072294600F062F8617860F3041161705F
:10046000207B002844D000212173DFF80C5428465B
:1004700000F0DFFF208A6063618AB4F92220DFF890
:10048000F0038A1A40F2691102F1B4038B4226BFCD
:10049000002606600022E283A38AB4F9202000F03F
:1004A00028F826BF002303600022A283E38AB4F960
:1004B0002A2000F01EF826BF002303600022E284F9
:1004C000238BB4F9282000F014F826BF0021016026
:1004D0000022A284002020826082A082E082208309
:1004E00004F110012846BDE87040052200F01ABF53
:1004F00070BD9A1A02F1B4068E4270472946C0F3C5
:10050000C0000BE0294600F0010007E02946C0F3D7
:10051000800003E02946C0F34000FFE770B50446C1
:100520000D4616463146284600F076FC844208D037
:100530003146284600F070FC0446DFF834130020F2
:100540000860204670BD0B46114601280CBF0022F2
:100550000122184600F066BC10B5DFF81043217A7E
:10056000607A227801F00F0141EA0011DFF80C03F4
:10057000E170027063784370A278C1708270B4F940
:100580001C10B84A017109124171B4F91E10817131
:100590000912C171B4F92410017209124172B4F93F
:1005A000261081720912C172117801F092F86073FD
:1005B00010BD38B5B04CAD4D204601F0BDF8052258
:1005C00005F11001204600F0ADFEC82000F060F9F2
:1005D000287BE8B100212973204600F02AFFB5F9F5
:1005E000120028840522B5F914106984B5F91600A3
:1005F00028850020B5F9181069856882A882E882EC
:10060000288305F110012046BDE8384000F08ABE7D
:1006100031BD10B5954C6178C1F3401048B1A07B55
:1006200048B1A07AC043002200F00100A273A0727A
:1006300001E00120A073C1F3001000283CD0E07B52
:1006400000283BD00021A07AE173B8B9207A0128B4
:1006500004D033D303280ED007D32FE00221217218
:10066000002001212071617121E00321217200200D
:10067000A08001201BE00121217229E0607A01287D
:1006800004D01BD3032814D00AD317E002216172CF
:1006900000222271607900F02EF86071002006E0DF
:1006A000032161720020A080A07900F024F8A071DD
:1006B00010BD0120607218E00121E173A07A60B9D9
:1006C000207A012804D0F3D30328D0D0C8D310BD9A
:1006D0000121002021716071E9E7607A012804D0CE
:1006E000E6D30328DED0D3D310BD207900F003F881
:1006F00020710020EFE762490A6840F259239A42CC
:1007000000D2704710B500240C60C04300F0010017
:1007100010BD5C48016840F6B932914200D2704782
:1007200010B5A1F6B933514A092B3CBF0124D4714D
:1007300040F61D43994202D300210160D17110BDE2
:10074000B1F5616F38BF012110D3A1F56162AA2A0A
:1007500038BF02210AD3A1F6BA62E62A38BF0321C4
:1007600004D3A1F57A61602901D2042100E0704729
:1007700070B53E4A444B966B1C68072E40F29115AB
:1007800067D8DFE806F004081728353F4C550020ED
:10079000186001211DE00020506040F22D108442BD
:1007A00057D30121117151719171D17100211960DB
:1007B00002233BE0FB2C4CD3002151601960002444
:1007C00003239363022804BFD06B012841D1012188
:1007D000D463916370BD40F2F515AC4239D301206A
:1007E000107100241C60D06304209063012912E082
:1007F000AC422ED30124547100201860052393636A
:10080000022908E0AC4224D301249471002018602E
:100810000623936303291CD10720906370BDAC426B
:1008200017D30121D171002018600723936370BD95
:1008300040F26D7084420CD3507800215160916376
:10084000C0F3801028B99085D18540F6B8300D4AA4
:10085000106070BDD8000020001001400008014069
:10086000000C0140AC0100209C0100200000002091
:1008700098010020E193040050000020780100203E
:10088000A4010020A0010020A8010020E71CE30033
:1008900038B5044600F0B6FF14F1010F054602D04A
:1008A00004490878041900F0ADFF401BA042FAD3B8
:1008B00031BD00BF4000002038B5040001D1012047
:1008C00032BD00F06FF818B900F068F801F030F8A8
:1008D00051E001680A6A41F211131A4202BF0A6A22
:1008E00040F244431A423CE090F83D10012901D007
:1008F00001207047022180F83D100168CA6842F06B
:100900000102CA600068DFF8A410884218BFB0F185
:10091000804F07D0DFF8981088421CBFDFF8942082
:10092000904209D1816801F00701062908D00168C9
:1009300041F00101016003E0026842F0010202603F
:10094000002070470168CA6852085200CA6041F22C
:10095000111301680A6A1A4202BF0A6A40F244434C
:100960001A4203D10A68520852000A60012180F835
:100970003D100020704702206870211D206800F0A3
:100980001CF90120A872A870E87028716871A8711C
:10099000E871287268726870002032BD00212970E9
:1009A0002046704704F13C0568787047002C0140F0
:1009B000000400400008004010B5044620680169AA
:1009C0008A0715D5C1688A0712D56FF00201016147
:1009D00001222277806910F0030F204602D000F038
:1009E000E7FF03E000F0E5FF00F087F80020207744
:1009F000206801694A0715D5C1684A0712D56FF00A
:100A00000401016102222277806910F4407F2046B0
:100A100002D000F0CDFF03E000F0CBFF00F06DF856
:100A200000202077206801690A0715D5C1680A07E8
:100A300012D56FF00801016104222277C06910F01D
:100A4000030F204602D000F0B3FF03E000F0B1FF37
:100A500000F053F80020207720680169CA0615D5F8
:100A6000C168CA0612D56FF0100101610822227711
:100A7000C06910F4407F204602D000F099FF03E0E7
:100A800000F097FF00F039F8002020772068016916
:100A9000CA0708D5C168CA0705D56FF00101016111
:100AA000204600F087FF206801690A0608D5C16862
:100AB0000A0605D56FF080010161204600F07BFF3A
:100AC000206801694A0608D5C1684A0605D56FF055
:100AD00040010161204600F06FFF206801698A062D
:100AE0000AD5C1688A0607D56FF02001016120464A
:100AF000BDE8104000F061BF10BD204600F05EBFB1
:100B000038B500F04EF801D1022032BD012020702E
:100B100002226270DFF800012A6893680340936044
:100B20000868020018BF10282DD0202818BF3028D0
:100B300029D0402823D0502816D0602818D07028FB
:100B400003D0B0F5005F07D021E000F025F8286859
:100B5000816841F0770105E000F01EF8286881689F
:100B600041F48041816012E000F012F850210BE066
:100B7000CA684968286800F068F8602104E000F05D
:100B800007F8402100E00146286800F070F80EE008
:100B9000CA684968286849E0CB684A688968286853
:100BA0006DE0054605F13C042078012870470120DE
:100BB000607000212170002032BD70B5174E0368AF
:100BC000174C184DB04218BFB0F1804F03D0A84267
:100BD00018BFA04209D14A6823F070031343B04202
:100BE0001CBFB0F1804FA84201D0A04203D1CA6817
:100BF00023F4407313434A6923F0800313430360D3
:100C0000B0428B68C3620A68826202D10969064AEF
:100C100011600123436170BD8800FFFF002C01407B
:100C20000008004000040040302C014010B5036A69
:100C3000046A64086400046223F00A03846924F0EF
:100C4000F00444EA0214846123E010B5036A23F03F
:100C5000100303628369046A23F4704343EA023396
:100C600024F0A004836144EA0114046210BD826888
:100C700022F07002114341F007018160704710B506
:100C8000846824F47F442143114341EA03218160B5
:100C900010BD1943016210BD2DE9F8470027BE467B
:100CA0006B4A6C4B4FF00F0882460BE0D668304021
:100CB000D06006E094604C68A402F7D5D068064383
:100CC000D6607F1C0E6836FA07F000F0A380012082
:100CD00000FA07F52E40AE42F3D1486858B3012818
:100CE0001AD002281FD0032833D0112817D0122879
:100CF0001DD0594CA0421CBF584CA0421BD0584C90
:100D0000A0421CBF574CA04215D0574CA0421CBF5C
:100D1000564CA0420FD01EE0D1F80CE01BE0C86892
:100D200000F1040E17E0C86800F1080E13E0C8686F
:100D300000F10C0E0FE0886810B94FF0040E0AE0C5
:100D400001284FF0080E14BFCAF81450CAF810500A
:100D500001E04FF0000EB6F5807F03D250464FEA17
:100D6000870C05E0A7F108040AF104004FEA840C9F
:100D7000046808FA0CF5AC430EFA0CF52C43046039
:100D80004868C0009DD51868DFF8E4C040F0010055
:100D900018601C6804F001040094BC000098B808B6
:100DA0005CF8205004F00C0408FA04F925EA09095B
:100DB000304DAA4508BF00250ED02F4DAA4508BFCB
:100DC000012509D02D4DAA4508BF022504D02C4D80
:100DD000AA450CBF0325042505FA04F444EA0904D6
:100DE0004CF82040F0434C68E40314684CBF344393
:100DF000044014604C68A40354684CBF344304405E
:100E000054604C689568E4024CBF46EA050400EA69
:100E100005044FE7BDE8F1878068084018BF01204E
:100E2000C0B2704702B9090401617047C26801EAA3
:100E30000203914341EA034101617047114A13687B
:100E400003421CBF106000F01FB870470000000094
:100E500000040140181002400000111000001210A0
:100E6000000021100000221000003110000032109C
:100E70000800014000080140000C01400010014042
:100E80000014014014040140704730B4002513E001
:100E900050F8042BD30744BFA9F101039A18091F86
:100EA000042942F8045BFAD213468C0744BF15802C
:100EB0009B1CC90748BF1D7050F8041B0029E7D1CF
:100EC00030BC7047002200E0012202210948FFF7F0
:100ED000A9BF01B582B04FF4FA600090012301AAC6
:100EE00002A9054800F0C5FD08B101F0B4F89DF86D
:100EF00004000EBD000C01408000002010B5044627
:100F0000FFF7E0FF04F01F00FFF7E3FFFF20FFF70C
:100F1000E0FF0446FFF7D8FF204610BD38B5044671
:100F20000D46FFF7CFFF2046202806DA04F01F0405
:100F300044F02000FFF7CDFF09E0FFF7CAFFE12CE6
:100F400018BFE22C06D0E32C18BFFF2C02D0284695
:100F5000FFF7BFFFBDE83140B6E770B500F014F809
:100F60002046FFF7B6FF04E0FF20FFF7B2FF05F8C9
:100F7000010B3046461EC0B20028F5D114E170B511
:100F800000F002F8204605E104460D46164699E7B2
:100F900080B508210020FFF7C1FF3F210120FFF7A6
:100FA000BDFF03210220FFF7B9FF03210320FFF754
:100FB000B5FF03210420FFF7B1FF02210520FFF751
:100FC000ADFF0E210620FFF7A9FF00210720FFF744
:100FD000A5FF00211120FFF7A1FF00211220FFF73C
:100FE0009DFF00211320FFF799FF00211420FFF738
:100FF00095FF00211520FFF791FF00211620FFF734
:101000008DFF00211C20FFF789FF00211D20FFF725
:1010100085FF00F0A9F8FF21E120FFF77FFF00F036
:10102000A6F8B4E03EB50FF2881405222146302020
:10103000FFF7A5FF052269461020FFF78EFF00206D
:10104000C2B214F8015B1DF80230AB4205D1401C5E
:10105000C1B20529F4DB01203EBD00203EBD10B524
:1010600000F012F8022C0CBF40F0020000F0FD006E
:10107000BDE81040014615E010B500F005F800F09D
:10108000FE0004F0010409E00446002036E710B534
:10109000FFF7FAFF00F0F30004F00C0444EA00014B
:1010A000BDE81040002039E758E0811EC9B2032096
:1010B00034E70000F8B501280C4605463EA604D9E1
:1010C000801E03281AD9001F1DD10320FFF716FF29
:1010D000471CF9B20C44FFF7F5FE705D40F02000AC
:1010E000FFF7F7FE14F80109FFF7F3FE3846471E35
:1010F000C0B20028F6D1BDE8F140E5E62178705D88
:10110000BDE8F4400AE7F1BD10B504460620FFF73C
:10111000F5FE00F0F90006E010B504460620FFF7E2
:10112000EDFE00F0D70044EA0001BDE810400620C3
:10113000F4E6000010B506280446A8BF002107DA2F
:101140000120FFF7DBFE012101FA04F420EA04018B
:10115000BDE810400120E1E60720CFE6014605206A
:10116000DCE6FF21E120D9E6FF21E220D6E680B5CA
:1011700000F006F8BDE8044040F070010720CDE61D
:101180000720BBE60A460146A020F8E60000BDE8BD
:10119000014099E601E015F8010BFFF79AFE304691
:1011A000461EC0B20028F6D1BDE870408CE60000B3
:1011B0006E524632340000000A0B0C0D0E0F100068
:1011C0000248016821F002010160704710E000E070
:1011D00020BF00BF704710B50E4A136823F002030A
:1011E00013601468640840EA4400106001290A4C46
:1011F000206840F00400206008BF30BF04D040BF2A
:10120000FFF7E6FFFFF7E4FF206820F0040020600E
:1012100010BD00000070004010ED00E0F8B504467D
:1012200000270026002C71D004F12405686820B93D
:10123000AE602870204600F008FB204600F0EEF972
:101240006968CA065ED401005CD1696821F48851DE
:1012500041F0020169606368E269217B1343A2687F
:10126000B2F5807F14BF012A4FF48077227D012AD6
:1012700043EA41030FD131B9A169491E490341F441
:1012800000610F4307E0696841F020016960A968C7
:1012900041F00101A96021684A6822F469421743BC
:1012A0004F602268DFF8501397680F401F43976024
:1012B000A168B1F5807F18BF012902D12669761E89
:1012C00036052168CA6A22F470021643CE62246889
:1012D000DFF82813A2680A409A4208D10023AB60C5
:1012E000696821F0020141F001016960F2BD68689E
:1012F00020F0020040F010006860A86840F0010093
:10130000A86003E0686840F0100068600120F2BD4A
:10131000044604F12405287801287047012028702C
:10132000204632E12DE9F047044689462068DFF87F
:10133000E012DFF8D482DFF8D472884218BF40454B
:10134000924603D1386810F4702F68D1FFF7E1FF9F
:1013500008BF022065D0FFF7E1FF002806465BD1F9
:101360006968DFF8A002014041F48071696020687B
:10137000404518D1396811F4702F14D0686840F4D2
:10138000801068603968480505D5696821F4005106
:1013900041F4805169606868C10446BFA86820F0C4
:1013A000060000200DE0696821F480116960406842
:1013B0004105F0D5686820F4005040F48050686022
:1013C000E9E7A860002129705346226A0FF29120B4
:1013D0009062216A0FF2D120C862216A0FF2D120F7
:1013E00008636FF00200226810604A462068816836
:1013F00041F480718160206800F14C01206A00F0A6
:101400005CFE206800F00FF881680CBF41F4A00179
:1014100041F48011816003E00020287000E0012683
:101420003046BDE8F087816801F46021B1F5602F96
:10143000704738B500F021F801D1022032BD00F02C
:1014400022F8010016D129688A6822F480728A6025
:10145000296A91F82120022A0CD1084600F067FE83
:101460000100616806BF21F4885141F0010141F09B
:10147000400161600021217032BD054605F1240460
:10148000207801287047012020702846C6E0F8B572
:101490000A46002100F1240300911C78012C01D19F
:1014A0000220F2BD01241C701F27546815680668CD
:1014B000072C08D2641E04EB8404D6F834C000F074
:1014C0005EF8756312E00D2C08D2E41F04EB84046F
:1014D000D6F830C000F053F8356307E00D3C04EB5C
:1014E0008404D6F82CC000F04AF8F5620727166885
:1014F000946805680A2E08D30A3E06EB4606D5F81E
:101500000CC000F036F8EC6006E006EB4606D5F8B5
:1015100010C000F02EF82C611468102C18BF112C8C
:1015200023D100683A4CA0421AD13A4805682C02EF
:101530001BD4056845F4000505601068102814D117
:101540002F4A354D1468B4FBF5F50A204543009544
:10155000009800281EBF0098401E0090F8D104E0BB
:101560000121586840F0200058600020187008469B
:10157000F2BDB7402CEA0707B4403C437047A74090
:101580002CEA0707A5403D43704738B504460020C4
:10159000009020688168CA072AD481681E4A41F0F9
:1015A0000101816016480168B1FBF2F2009202E08D
:1015B0000098401E009000980028F9D100F022F910
:1015C000054620688168C80712D400F01BF9401B4B
:1015D0000328F6D304F124000022416841F01001F1
:1015E0004160816841F0010181600270012032BDDB
:1015F000002032BD00000000FDF7E1FFFE0E1FFFDE
:101600004C000020FEF1FFFF0028014004240140AF
:10161000002401400824014040420F0038B5044630
:1016200020688168CA0719D5816849084900816026
:1016300000F0E8F8054620688168C8070ED500F07C
:10164000E1F8401B0328F6D3A06A40F01000A06226
:10165000E06A40F00100E062012032BD002032BDAE
:10166000416A8A6A12F0500F1BD1886A40F40070F8
:1016700088620A68906800F46020B0F5602F04BFAB
:10168000087B00280AD1886A20F480708862886A02
:10169000C20403D4886A40F001008862084600F062
:1016A00036BE096A0A6B1047406A00F031BE00007E
:1016B000406A816A41F040018162C16A41F00401DF
:1016C000C16200F026BE0000002201211848FFF789
:1016D000A9BB38B50446174800900D46FFF7F4FF44
:1016E00029462046FFF74EFD012201211048FFF751
:1016F00099FBFFF731FD044614F0300004D1009847
:10170000411E00280091F4D1FFF7DEFF009808B9D0
:10171000022032BDFFF72BFDE00601D5032032BDCC
:10172000A00601D5012032BDFFF71BFD002032BD10
:10173000000C0140FFFF0F00F8B50446002004F143
:10174000240600903178012901D10220F2BD012048
:1017500030702046FFF762FF050047D1706820F423
:10176000885040F002007060022000F041FE00F05E
:1017700041F8400001E00098401E009000980028C9
:10178000F9D12046FFF701FF2068816841F0080188
:10179000816000F037F80746206881680A0714D591
:1017A00000F030F8C01B0B28F6D304E000F02AF854
:1017B000C01B0B2810D3706820F0020040F010000E
:1017C0007060002030700120F2BD816841F004019A
:1017D000816000F017F80746206881684807E5D463
:1017E000716821F0020141F0010171600020307048
:1017F0002846F2BDDFF808100A68B2FBF0F0704727
:101800004C00002001484068704700BF40000020A5
:101810005D4881B0016841F001010160026802F099
:10182000010200920099426842F080524260406892
:1018300000F08050009000985448016821F0E06169
:1018400041F00071016001B0704778B585B000F0DB
:1018500063F825684E4EB5422FD14B484D4D016877
:1018600041F4007101600323026802F4007200F089
:1018700058F81F22006800F00400009000990192BF
:10188000029301A94448FFF707FA44482860002161
:101890008020E86069604FF4806000224FF480711E
:1018A0006861AA602961AA61EA61284600F0D8FB54
:1018B00008B100F0D0FB25626C6206B070BD30B597
:1018C00085B000F029F82468354DAC4222D12E486D
:1018D000314C016841F480510160026802F4805289
:1018E00000F01FF8A021006800F004000090022220
:1018F00000980191029203210491204601A9FFF76B
:10190000CBF940200021019002910391204601A9CA
:10191000FFF7C2F905B030BD044601A8102100F060
:10192000D3BD00920099026842F004020260704741
:1019300000681C49884200D0704780B51248026890
:1019400042F4006202600022006800F4006000902F
:1019500000210098192000F0D5FDBDE802401920B3
:1019600000F0EDBD81B000680F49884209D10F48F1
:10197000026842F400620260006800F400600090B7
:10198000009801B0704700001810024004000140A8
:1019900000240140340100200008014008000240FA
:1019A00000300140002C0140002C00401C1002407F
:1019B0007047704770477047704770477047000026
:1019C00038B5040001D1012032BD606A28B900F0A9
:1019D0004CF805D00021E16102E000202061606147
:1019E0000020A06204F15005687820B90021297018
:1019F0002046FFF764FF0220687000F03CF9606841
:101A0000A168E26800F4827001F404410843217C7B
:101A100002F400621043227D01F002010843A16933
:101A200002F001021043227F01F40071084394F890
:101A3000201002F038021043A26A01F0800108432E
:101A4000216802F4005210430860A0692168000C6C
:101A500000F0040048602068C16921F40061C161A0
:101A6000002068600121697032BD6068B0F5827F36
:101A700070472DE9FC4700F0DDF84FF0010808BF82
:101A8000022000F0BC809A4687F80080FFF7BAFE7B
:101A90007B78012B09D06968B1F5827F02BFA96804
:101AA0000029042B01D00226A4E0002C1CBFB9F1B0
:101AB000000FBAF1000F01D101269BE07B78042BC7
:101AC0001CBF052179707E60C5F83890A5F83EA04E
:101AD000A5F83CA02C63A5F836A0A5F834A02E6488
:101AE0006E6429680C68630603D40C6844F04004F3
:101AF0000C60E9680A9CB1F5006F696838D100296B
:101B000018BFBAF1010F00F0AAF88146E88E00284C
:101B100004BFE88F002874D02968886882070BD535
:101B2000E88E002818BFB8F1000F05D0286B028896
:101B3000CA60B04600F070F829688868C2070CD502
:101B4000E88F50B1C868A96B08804FF00108A86BF6
:101B5000821CAA63E88F411EE987FFF753FEA0EBC2
:101B60000900A042D2D314F1010FCFD0032641E0E7
:101B7000002918BFBAF1010F00F065F88146E88E20
:101B8000002804BFE88F00283BD0296888688207B6
:101B90000DD5E88E002818BFB8F1000F07D0286BCC
:101BA00002780A73B046286B411C00F037F82968A8
:101BB0008868C2070CD5E88F50B1C868A96B087057
:101BC0004FF00108A86B421CAA63E88F411EE98709
:101BD000FFF718FEA0EB0900A04203D314F1010F98
:101BE000CDD0C3E7002CCAD1C0E7A86810B900F077
:101BF0001AF8009801217970002038703046BDE84D
:101C0000F68721464A46284600F09CF80028ECD08A
:101C1000202101267960EDE7286B811C2963E88E7D
:101C2000411EE986704700962968CA680092896853
:101C300000917047054605F15007002638780128C5
:101C40000C469146704709D1296B2B680A781A73A4
:101C5000296B4A1C2A63E98E4A1EEA86704709D11D
:101C6000296B2B680A88DA60296B8A1C2A63E98E43
:101C70004A1EEA8670472068016821F04001016031
:101C8000704700002DE9F843089C05460E46904633
:101C90001F46FFF7B7FD381A2418FFF7B3FD81463A
:101CA000314801684901090D6143009105E0009840
:101CB00000B900240098401E0090286881683140D7
:101CC000B1420CBF01200020404532D017F1010F76
:101CD000F3D0FFF797FDA0EB0900A04201D2002C42
:101CE000E5D12868416821F0E00141606868B0F5FD
:101CF000827F08D1A868B0F5004F18BFB0F5806F9B
:101D000001D100F019F8A86AB0F5005F09D1286880
:101D1000016821F4005101602868026842F4005211
:101D2000026005F150000121417000220270032081
:101D300000E00020BDE8F2832868016821F040013E
:101D4000016070471CB500920B46044600228021BA
:101D5000FFF798FF08B100F001F816BD606D40F084
:101D600020006065032070474C000020F8B586B065
:101D700000F010FC00F09EF800F0D5F8A248A34C4B
:101D8000016841F0010101600022006800F00100DB
:101D90000090002100980B2000F0B4FB0B2000F015
:101DA000CEFB9B4820634FF482710020A063E06368
:101DB0002064606461634FF40070A0641821E164E2
:101DC000002020656065A0650A21E16504F130000E
:101DD000FFF7F6FD02A800F0A3F800BF9EA004F1F3
:101DE0008805D0E900678B48286041F61F4109202B
:101DF000CDE900670022E8606960AA602A616A6133
:101E0000AA612846FEF758FD4FF48050029002A9BF
:101E10002846FEF775FE002100910191284669468B
:101E200000F0CAFB684600210022002380E80E0073
:101E3000012020734FF46020E0610520764E26607B
:101E400020614FF4807621756160A6602046FFF71F
:101E5000E5F90020012100900191029000F026F8A0
:101E600001210091022200F020F8022100910322BA
:101E700000F01BF803210091042200F016F8042161
:101E80000091052200F011F87F2129656965002184
:101E90006248A864A965EE6404F1D00000F0BEFBBE
:101EA000FEF726F9FEF783F9FCE701926946204622
:101EB000FFF7EDBA00B593B009A8282100F004FBA4
:101EC00004A8142100F000FB00F029F84FF4803141
:101ED00000220A910B921191012009900D9002228B
:101EE0004FF4E0111092129109A800F0B1FB022109
:101EF00005910F204FF48061049000220791069213
:101F00000892022104A800F033FD02214FF40042A0
:101F100000910292684600F0FDF913B000BD6846DA
:101F2000102100F0D1BA78B585B0FFF7F8FF3C4832
:101F30003C4E04683C4D44F01004046001683B4C86
:101F400001F0100104910499026842F0200202603D
:101F5000036803F0200304930499026842F004022A
:101F60000260036803F0040304930499026842F0DA
:101F7000080202600022006800F0080004904FF49C
:101F8000604104983046FEF74DFF002203212046B1
:101F9000FEF748FF00224FF400412846FEF742FFBB
:101FA0004FF4604100F04EF83046FEF775FE032115
:101FB00000F048F82046FEF76FFE4FF6F85000217B
:101FC00000F038F84FF4F8500021009001910222FF
:101FD000029269462846FEF75FFE4FF4004100F08A
:101FE00031F82846FEF758FE4FF40070104900F013
:101FF00021F800220021172000F084FA172000F0B9
:102000009EFA06B070BD000014100240500000207F
:1020100000300140002C014000240140002C004011
:10202000181002400010014000080140000C01405F
:102030000000111000900191022202926946204690
:10204000FEF72ABE00910122019200210291022294
:1020500003926946704770470000000000000000CE
:1020600030B508B9012030BD0468DFF85C120919E9
:10207000142200F13803B1FBF2F292009A600222BE
:10208000DFF84812596080F821202568416882688D
:102090006FF30D150D43C168154302690D43416986
:1020A000154382690D43C16915430D432560002422
:1020B0001C6000F061F8002030BDF8B50446002532
:1020C00094F82000012801D10220F2BD94F821608B
:1020D0000120012E84F8200024D1022004F12C06D6
:1020E00084F82100F560206807687F087F0007609A
:1020F000204600F0FBF82168306820B10A6842F001
:102100000E020A6008E0086820F0040008602068F9
:10211000016841F00A0101602068016841F0010195
:10212000016002E084F8205002252846F2BD10B577
:1021300090F82110022900F1380206D00423136020
:10214000002180F82010012010BD01680B6823F0E9
:102150000E030B60012301680C68640864000C60C6
:10216000916852688B4053600121002280F8211051
:1021700080F82020002010BD012280F8212080F866
:10218000204070472DE9F84F00F1280204275169DB
:10219000544BD1F800E0056853492E68D2F818A0D6
:1021A0004F4CDFF83881DFF83091DFF828B1DFF8E5
:1021B00020C107FA0AF71EEA070F2DD077072BD5A3
:1021C0002E68B60603D42E6826F004062E60056835
:1021D000654508BF042318D05D4508BF402314D0CF
:1021E0004D4508BF4FF480630FD0454508BF4FF4FD
:1021F00080430AD0A54208BF4FF4802305D09D42FA
:102200000CBF4FF480034FF080630B6051680029CE
:1022100058D0BDE8F44F0847022707FA0AF71EEA2C
:10222000070F32D0B70730D52E68B60606D42E6811
:1022300026F00A062E60012580F8215005686545C4
:1022400008BF022318D05D4508BF202314D04D4598
:1022500008BF4FF400730FD0454508BF4FF400533B
:102260000AD0A54208BF4FF4003305D09D420CBFF1
:102270004FF400134FF000730B60002180F8201022
:102280001168F9B1BDE8F44F0847082101FA0AF1D5
:102290001EEA010F16D0310714D52B6823F00E0368
:1022A0002B600124916953698C405C6001211161AC
:1022B00080F82110002180F82010916811B1BDE84C
:1022C000F44F0847BDE8F18FF8FFFDBF0000024062
:1022D000080002401C00024030000240440002405E
:1022E000580002406C0002400400024070B5046CCB
:1022F000C66B0125A54075600468636040681028BE
:1023000002D1A260E16070BDA160E26070BD704763
:10231000704770472DE9FC410646604D3078C10793
:1023200050D5A8690024C10009D4A86940F08050A4
:10233000A8610124A86900F0805000900098584FCF
:102340003868C10519D4386840F480703860FFF7E8
:1023500059FA80463868C1050FD4FFF753FAA0EB4D
:1023600008006528F6D303203FE0FFF74BFAC01BB7
:1023700041F28931884217D3F5E7E86910F44070DB
:102380001EBF716801F44071884210D04549E86968
:1023900001220A60002320F440700B60E861C0074E
:1023A00005D5FFF72FFA0746E8698107DDD5EA6909
:1023B000706822F440720243EA611CB1A86920F0FF
:1023C0008050A8613078810705D52A68B06822F46A
:1023D000404202432A603178C80605D52968F06872
:1023E00021F48001014329600020BDE8F68100004E
:1023F00010B5002101282C4C25D0022843D01028EC
:102400004AD160682268D30146D500BF29A1C0F334
:102410008342C003895C0CD5606800BF29A3234AAE
:10242000C0F34040185CB2FBF0F308461946414344
:1024300001E01F4A5143606842022DD44900032045
:10244000B1FBF0F128E0206A40F202320240B2F51E
:10245000817F08BF4FF400411ED000F44072B2F5F6
:10246000007F05D1626A930748BF49F6404113D403
:1024700000F44070B0F5407F0ED1206882030BD588
:102480004FF2244108E000F014FB6168C1F3813190
:10249000491C4900B0FBF1F1084610BD0410024090
:1024A00000700040400442420010024000127A00D6
:1024B00000093D0002030405060708090A0B0C0D7C
:1024C0000E0F101001020000002200F01FBB0000E0
:1024D0000901020002D4294881547047284B02F0B8
:1024E0000F021A4402F8041C7047264B19684FF675
:1024F000FF020002114000F4E06008432249084353
:102500001860704738B51F4B1C68C4F30223C3F131
:102510000704052C28BF04241D1D072D34BF0023EC
:10252000DB1E012505FA04F4641E2140994005FADA
:1025300003F35B1E1A401143BDE83440C8E70100B5
:1025400007D4012200F01F01104B8A40400943F8D4
:102550002020704710B5401EB0F1807F01D30120CC
:1025600010BD0B4C60600F214FF0FF30FFF7B0FF44
:102570000021A16007202060002010BD00E400E0E1
:1025800018ED00E00CED00E00000FA0500E100E0CD
:1025900010E000E080B50748016841F010010160DB
:1025A0000320FFF7A2FF002000F0CAFAFFF730F97E
:1025B000002002BD0020024070B500F13C031A78F3
:1025C000012A01D1022070BD01221A7002245C7020
:1025D00005686E68AC680A6826F0700616436E607F
:1025E00002680B48824218BFB2F1804F05D00948FB
:1025F00082421CBF084DAA4204D1486824F08004DE
:1026000004439460012159700020187070BD0000CF
:10261000002C0140000400400008004010B50400F8
:1026200001D1012010BDFFF79DF92268E06840F05C
:102630008000106023696068A16803430B43536006
:10264000002010BDC16800680160002070470000D4
:102650002DE9F843040016D02078DFF86C64C10738
:1026600013D5706800F00C00042807D0706800F0E3
:102670000C00082840D17068C1033DD53068810343
:1026800003D56068002800F0F4802078DFF84874F3
:10269000810719D5706810F00C0F07D0706800F032
:1026A0000C00082860D17068C1035DD430688107D0
:1026B00003D52069012840F0DC803168606921F091
:1026C000F80141EAC00131602178080770D5A0699E
:1026D000DFF80814002865D001220A60FFF792F89D
:1026E0000546706A810700F1C680FFF78BF8401B32
:1026F0000228F6D9032035E16068B0F5803F04D1A7
:10270000306840F48030306014E008B930680AE086
:10271000B0F5A02F306806D140F4802030603168D9
:1027200041F4803105E020F480303060316821F4DC
:1027300080213160606858B1FFF764F80546306861
:102740008103A2D4FFF75EF8401B6528F7D3D1E7D9
:10275000FFF758F805463068810396D5FFF752F821
:10276000401B6528F7D3C5E7206970B101213960A6
:10277000FFF748F805463068810700F1B680FFF79B
:1027800041F8401B0228F6D9B4E73860FFF73AF861
:1027900005463168880797D5FFF734F8401B0228B3
:1027A000F7D9A7E70860FFF72DF80546706A81079B
:1027B00070D5FFF727F8401B0228F7D99AE708B928
:1027C000306A09E00528306A06D140F00400306222
:1027D000306A40F0010005E0400840003062306A95
:1027E00020F00400306241F28938E06868B1FFF7F8
:1027F00009F88146306A810700F18480FFF702F80A
:10280000A0EB09004045F5D374E7FEF7FBFF8146D6
:10281000306A810776D5FEF7F5FFA0EB0900404549
:10282000F6D367E7FEF7EEFF401B02287BD961E78E
:10283000FEF7E8FF001B022840F28F805AE700F005
:1028400093F804463068810140F18B80FEF7DAFF8F
:10285000001B0228F6D94DE701280AD07068226AC9
:1028600000F48031914202BF00F47010616A884226
:1028700077D0012076E0DFF854020168C9084FF4F0
:102880007A72B1FBF2F2009200BF0098411E00285C
:102890000091F9D12078410739D5F0690025C100B0
:1028A00009D4F06940F08050F0610125F06900F032
:1028B000805000900098DFF82882D8F80000C10509
:1028C0001BD4D8F8000040F48070C8F80000FEF770
:1028D00099FF8146D8F80000C1050ED4FEF792FF9B
:1028E000A0EB09006528F5D304E73068616920F0A2
:1028F000F80040EAC1003060E6E6E06801287FF4B5
:102900005EAF65E71DB1F06920F08050F061E069CD
:1029100038B3716801F00C0108299DD002288ED1CE
:1029200000F022F80546306881013FF57BAF206A50
:10293000B0F5803F05D17168A06821F400310143F2
:1029400071607268206A616A22F4741202430A4359
:102950007260012000F009F80446306881017FF5BB
:1029600067AF0020BDE8F28300203866FEF74ABF5B
:102970002DE9F0410400884672D05A4E00F077F8F5
:1029800002D200F06FF86BD120684F4D810712D54D
:10299000400703D5696841F4E06169602078010768
:1029A00003D5686840F4605068606968A06821F0E9
:1029B000F001014369602178C80749D560680128A2
:1029C00002D129688A0303E00228296802D18A011A
:1029D00002D445E08A0743D56968890840EA810046
:1029E0006860FEF70FFF07466868616800F00C003A
:1029F000B0EB810F2CD0FEF705FFC01B41F28931EF
:102A00008842F1D3032021E02078410705D56A6888
:102A1000E06822F4E06202436A602178080706D584
:102A20006968206921F4605141EAC001696000F0E1
:102A300023F86A682C49254BC2F30312895CC8400D
:102A400018602448006800F07BF80020BDE8F081A1
:102A5000306800F007008045D6D200F003F8D3D0EC
:102A60000120F3E73168C90848EAC10131603068E4
:102A700000F00700404570471C4915480A6802F0FD
:102A80000C03082B00D0704710B500BF1AA4C2F386
:102A90008343D203E35C08D5096858431AA3C1F302
:102AA00040415A5CB0FBF2F010BD18461049484353
:102AB00010BD06480D4A006813680E49C3F3C222D0
:102AC000895CC84070470000001002404C000020A4
:102AD00000127A0048000020000042428004424276
:102AE0000070004000200240842D000804100240C5
:102AF00000093D00B02D000802030405060708097F
:102B00000A0B0C0D0E0F10100102000000B500BFE3
:102B1000130096469446103928BFA0E80C50FAD806
:102B20005FEA417C28BF0CC048BF40F8042BC907AE
:102B300028BF20F8022B48BF00F8012B00BD000081
:102B400038B50D4D0D4B2A7804464FF47A7118684C
:102B5000B1FBF2F2B0FBF2F0FFF7FCFC50B9102C25
:102B600008D2002221464FF0FF30FFF7CBFCAC60CB
:102B7000002032BD012032BD400000204C0000206A
:102B8000704710B53F4C00F02FF800F027F800F028
:102B90001FF800F017F8F6E710B53A4C00F024F8EB
:102BA00000F01CF800F014F800F00CF8F6E710B58F
:102BB000344C00F019F800F011F800F009F800F0BA
:102BC00001F8F6E701224FF400412046FEF72AB94A
:102BD00001224FF480412046FEF724B901224FF430
:102BE00000512046FEF71EB901224FF4004126484D
:102BF000FEF718B910B5234CFFF7F6FFFFF7EEFF0D
:102C0000FFF7E6FFFFF7DEFFF6E770477047704714
:102C100000F04AB880B51D48FFF7B4FA1C480121FE
:102C2000017001BD10B54FF40070FEF707F91948A7
:102C3000194C002101604FF4007260781749C0F30D
:102C40000010FDF76BFC617860F30411617010BD3A
:102C500080B51348FDF7B0FE0E4801684268491C74
:102C60000160521C81684260491C8160C168491C36
:102C7000C1600169491C01610A48BDE80240FFF7D3
:102C8000E1BC0000001001400008014034010020B8
:102C90000C0000209801002000000020000C0140E2
:102CA000D80000202001002002494A6808788218D4
:102CB0004A6070474000002030B5016884684218BF
:102CC000416802EB5103C9070BD54C4409E012F9E6
:102CD000011B12F8015B002904F8015B05D5491CB2
:102CE000F9D19A42F3D10C3030BD491EF1D5F8E745
:102CF00010B5074979441831064C7C44163404E079
:102D00000A68081D114488470146A142F8D110BD48
:102D1000080000002400000073E1FFFF60010000D4
:102D2000500000200000000091FFFFFF2C01000078
:102D30002C0000000000002000F00DF8002801D059
:102D4000FFF7D6FFAFF300800020AFF30080FFF75E
:102D50000DF800F002F80120704700F001B8000003
:102D60000746384600F002F8FBE7000080B5AFF3F5
:102D70000080024A11001820ABBEFBE726000200CB
:102D80007047000000000000000000000102030482
:102D9000060708090148804701480047812D0008BF
:102DA000A52D0008AFF30080AFF30080FFF7C4FF4C
:102DB0000000000001020304FFF7FEBFFFF7FEBFA3
:102DC000FFF7FEBFFFF7FEBFFFF7FEBFFFF7FEBF37
:102DD000FFF7FEBFFFF7FEBFFFF7FEBFFFF7FEBF27
:102DE000FFF7FEBFFFF7FEBFFFF7FEBFFFF7FEBF17
:102DF000FFF7FEBFFFF7FEBFFFF7FEBFFFF7FEBF07
:102E0000FFF7FEBFFFF7FEBFFFF7FEBFFFF7FEBFF6
:102E1000FFF7FEBFFFF7FEBFFFF7FEBFFFF7FEBFE6
:102E2000FFF7FEBFFFF7FEBFFFF7FEBFFFF7FEBFD6
:102E3000FFF7FEBFFFF7FEBFFFF7FEBFFFF7FEBFC6
:102E4000FFF7FEBFFFF7FEBFFFF7FEBFFFF7FEBFB6
:102E5000FFF7FEBFFFF7FEBFF800FE01CE00000146
:0E2E6000FD000001F9000010FC000224F40047
:0400000508002DA51D
:00000001FF
